:020000040800F2
:100000000080002075020008C5020008C502000833
:10001000C5020008C5020008C50200080000000073
:10002000000000000000000000000000C502000801
:10003000C502000800000000C5020008C502000853
:10004000C5020008C5020008C5020008C502000874
:10005000C5020008C5020008C5020008C502000864
:10006000C5020008C5020008C5020008C502000854
:10007000C5020008C5020008C5020008C502000844
:10008000C502000800000000C5020008C502000803
:10009000C5020008C5020008C5020008C502000824
:1000A000C5020008C5020008C5020008C502000814
:1000B000C5020008C5020008C5020008C502000804
:1000C000C5020008C5020008C5020008C5020008F4
:1000D000C5020008C5020008C5020008C5020008E4
:1000E000C5020008C5020008C5020008C5020008D4
:1000F000C5020008C5020008C50200080000000093
:1001000000000000C502000800000000C502000851
:10011000C502000800000000C5020008C502000872
:10012000C5020008C5020008C5020008C502000893
:10013000C50200080000000000000000C502000821
:10014000C5020008C5020008000000000000000011
:10015000000000000000000000000000000000009F
:10016000000000000000000000000000C5020008C0
:10017000C5020008000000000000000000000000B0
:1001800000000000C50200080000000000000000A0
:10019000000000000000000000000000000000005F
:1001A0000000000000000000C5020008C5020008B1
:1001B000C5020008C5020008C502000800000000D2
:1001C00000000000C5020008000000000000000060
:0801D000C5020008C502000889
:1001D80070B50D4E0D4D761BB61006D0002455F89F
:1001E800043B01349847A642F9D1094E094D761BC4
:1001F80000F066F8B61006D0002455F8043B013428
:100208009847A642F9D170BD000000000000000028
:10021800000000000000000080B400AF074B1B681E
:100228000133064A1360064B1B680233044A136005
:10023800044B1B680333034A1360EFE700000020F8
:10024800040000200800002080B400AF064BD3F85B
:100258008830054A43F47003C2F8883000BFBD46B1
:100268005DF8047B704700BF00ED00E00D4885464F
:10027800FFF7EAFF0C480D490D4A002302E0D45865
:10028800C4500433C4188C42F9D30A4A0A4C0023D8
:1002980001E013600432A242FBD3FFF799FFFFF796
:1002A800BBFFFEE7008000200000002000000020C7
:1002B800E0020008000000200C000020FEE700001B
:1002C800F8B500BFF8BC08BC9E467047F8B500BF3B
:0802D800F8BC08BC9E4670470B
:040000050800027578
:00000001FF
