:020000040800F2
:100000000080002059020008A9020008A902000887
:10001000A9020008A9020008A902000800000000C7
:10002000000000000000000000000000A90200081D
:10003000A902000800000000A9020008A9020008A7
:10004000A9020008A9020008A9020008A9020008E4
:10005000A9020008A9020008A9020008A9020008D4
:10006000A9020008A9020008A9020008A9020008C4
:10007000A9020008A9020008A9020008A9020008B4
:10008000A902000800000000A9020008A902000857
:10009000A9020008A9020008A9020008A902000894
:1000A000A9020008A9020008A9020008A902000884
:1000B000A9020008A9020008A9020008A902000874
:1000C000A9020008A9020008A9020008A902000864
:1000D000A9020008A9020008A9020008A902000854
:1000E000A9020008A9020008A9020008A902000844
:1000F000A9020008A9020008A902000800000000E7
:1001000000000000A902000800000000A902000889
:10011000A902000800000000A9020008A9020008C6
:10012000A9020008A9020008A9020008A902000803
:10013000A90200080000000000000000A902000859
:10014000A9020008A9020008000000000000000049
:10015000000000000000000000000000000000009F
:10016000000000000000000000000000A9020008DC
:10017000A9020008000000000000000000000000CC
:1001800000000000A90200080000000000000000BC
:10019000000000000000000000000000000000005F
:1001A0000000000000000000A9020008A9020008E9
:1001B000A9020008A9020008A90200080000000026
:1001C00000000000A902000800000000000000007C
:0801D000A9020008A9020008C1
:1001D80070B50D4E0D4D761BB61006D0002455F89F
:1001E800043B01349847A642F9D1094E094D761BC4
:1001F80000F058F8B61006D0002455F8043B013436
:100208009847A642F9D170BD000000000000000028
:10021800000000000000000080B400AF024B1B6823
:100228000133014A1360F9E70000002080B400AFF1
:10023800064BD3F88830054A43F47003C2F8883077
:1002480000BFBD465DF8047B704700BF00ED00E0CD
:100258000D488546FFF7EAFF0C480D490D4A002373
:1002680002E0D458C4500433C4188C42F9D30A4A63
:100278000A4C002301E013600432A242FBD3FFF7CB
:10028800A7FFFFF7C9FFFEE700800020000000205D
:1002980000000020C4020008000000200400002024
:1002A800FEE70000F8B500BFF8BC08BC9E467047E2
:0C02B800F8B500BFF8BC08BC9E467047BB
:040000050800025994
:00000001FF
